:100000000A128A11F62F00308A000408840A820737
:10001000003441344434433430343D3420340034EB
:0E00200041344434433432343D34203400340F
:100A9200F200720883120313880007108714823051
:100AA200F100DD30F000F00B542DF10B542D592DD7
:100AB2008312031387108230F100DD30F000F00B57
:100AC200602DF10B602D652D0800F2007208831273
:100AD20003138800071487148230F100DD30F00020
:100AE200F00B712DF10B712D762D831203138710EC
:100AF2008230F100DD30F000F00B7D2DF10B7D2D09
:100B0200822D0800F400952D740884000A128A11BF
:100B120003200A128A110A128A1166250A128A1100
:100B22000130F3007308F407740884000A128A1172
:100B320003200A128A11003A031DA02DA12D852D32
:100B420008008230F400DD30F300F30BA62DF40B25
:100B5200A62DAB2D38300A128A1149250A128A11A4
:100B62000C300A128A1149250A128A1106300A1219
:100B72008A1149250A128A1101300A128A1149255D
:100B82000A128A110800F6008530F20072088312F8
:100B920003139F0504307602031CD02DD12DD42DD2
:100BA200F001F101FB2D7608F20002300310F20D84
:100BB200FF3E031DD72D0310720DF30073089F042F
:100BC2000D30F300FB30F200F20BE52DF30BE52DB7
:100BD200EA2D831203131F151F19F02DF12DED2D90
:100BE2001E08F500831603131E08F4007508F100B1
:100BF2007408F0000800F200831203131F141F137D
:100C02009F17831603131F179F171F109F101F1183
:100C12009F111B2E05143D2E85143D2E05153D2ECC
:100C220085153D2E85163D2E09143D2E89143D2E27
:100C320009153D2E7208F000F1017108003A0319FE
:100C4200232E3D2E7008003A03190B2E013A031988
:100C52000D2E033A03190F2E013A0319112E073AEA
:100C62000319132E013A0319152E033A0319172EED
:100C7200013A0319192E3D2E080083120313A10114
:100C8200FC1F442E452E4C2EFB09FC09FB0A0319BE
:100C9200FC0AA101A10AFA1F4F2E502E552EF90966
:100CA200FA09F90A0319FA0A79087A0403195A2E79
:100CB2005B2E8A2EA001A00A692E01300310F90DC5
:100CC200FA0DFF3E031D5F2E0130FD007D08A007D7
:100CD200FA1F6C2E6D2E5E2E7A087C02031D732E77
:100CE20079087B02031C762E772E7D2E7908FB0273
:100CF2007A08031CFC03FC0201300310FA0CF90C05
:100D0200FF3E031D7E2E0130A002031D892E8A2E76
:100D12006D2E210803198E2E8F2E942EFB09FC09AD
:100D2200FB0A0319FC0A7C08FA007B08F900080098
:100D3200F601F11F9D2E9E2EA52EF009F109F00A53
:100D42000319F10AF601F60AF31FA82EA92EB22EF4
:100D5200F209F309F20A0319F30A0130F4007408E4
:100D6200F606F701F801700871040319B92EBA2EBC
:100D7200F12EF501F50AC82E01300310F00DF10D28
:100D8200FF3E031DBE2E0130F4007408F507F11F6B
:100D9200CB2ECC2EBD2E01300310F70DF80DFF3EE9
:100DA200031DCD2E71087302031DD92E7008720225
:100DB200031CDC2EDD2EE42E7008F2027108031CE7
:100DC200F303F302771401300310F10CF00CFF3E31
:100DD200031DE52E0130F502031DF02EF12ECC2E5F
:100DE20076080319F52EF62EFB2EF709F809F70AF5
:100DF2000319F80A7808F1007708F0000800831652
:100E020003138710071088010A128A11A2250A12F9
:100E12008A1100300A128A11FC250A128A11023044
:100E22000A128A11FC250A128A1180300A128A11CA
:100E320049250A128A1101300A128A1183250A12DF
:100E42008A11C0300A128A1149250A128A11083001
:100E52000A128A1183250A128A1100300A128A1193
:100E6200C4250A128A11710883120313A90070089B
:100E7200A80002300A128A11C4250A128A117108C6
:100E820083120313A7007008A60085300A128A1184
:100E920049250A128A11831203132908A30028087C
:100EA200A2000A128A116C270A128A11C5300A128C
:100EB2008A1149250A128A11831203132708A300F3
:100EC2002608A2000A128A116C270A128A112E2FF2
:100ED2000A128A110028E830F0000330F100831270
:100EE20003132308F3002208F2000A128A1199263A
:100EF2000A128A117008303E0A128A1166250A12F5
:100F02008A110A30F9000030FA006430F000003033
:100F1200F100831203132308F3002208F2000A12DD
:100F22008A1199260A128A117108FC007008FB00C6
:100F32000A128A113E260A128A117908303E0A12D2
:100F42008A1166250A128A110A30F9000030FA0065
:100F52000A30F0000030F100831203132308F3007B
:100F62002208F2000A128A1199260A128A117108BD
:100F7200FC007008FB000A128A113E260A128A112E
:100F82007908303E0A128A1166250A128A110A303D
:100F9200F9000030FA00831203132308FC00220830
:100FA200FB000A128A113E260A128A117908303E83
:100FB2000A128A1166250A128A11DF300A128A1170
:100FC20066250A128A1163300A128A1166250A12EC
:100FD2008A11213083120313A5007530A400A40BDB
:100FE200F02FA50BF02FF52F080083120313A60193
:0E0FF200A701A801A90183010A128A11002F8C
:02400E003A3F37
:00000001FF
